:100000000C942C010C9449010C9449010C94490165
:100010000C9449010C9449010C9449010C94490138
:100020000C9449010C9449010C9449010C94490128
:100030000C9449010C9449010C9487010C947201B1
:100040000C9449010C9449010C944B010C94490106
:100050000C9449010C9449010C9449010C944901F8
:100060000C9449010C9449010C9449010C944901E8
:100070000C9449010C9449010C94490100000000C2
:100080000000005F00000003000300143E143E1453
:10009000242A7F2A124333086661364955225000CC
:1000A00005030000001C2241000041221C0014082E
:1000B0003E081408083E08080050300000080808F0
:1000C0000808006060000020100804023E51494505
:1000D0003E0004027F0042615149462241494936AF
:1000E0001814127F1027454545393E4949493201C8
:1000F000017109073649494936264949493E0036C2
:100100003600000056360000081422410014141472
:100110001414004122140802015109063E415955A8
:100120005E7E0909097E7F494949363E41414122A7
:100130007F4141413E7F494949417F090909013ECB
:100140004141493A7F0808087F00417F4100304023
:1001500040403F7F081422417F404040407F020CD6
:10016000027F7F0204087F3E4141413E7F09090929
:10017000061E2121215E7F09090976264949493257
:1001800001017F01013F4040403F1F2040201F7F71
:100190002010207F41221C2241070870080761516E
:1001A000494543007F41000002040810200000413F
:1001B0007F0004020102044040404040000102046C
:1001C0000020545454787F444444383844444444D0
:1001D000384444447F385454541804047E050508B8
:1001E0005454543C7F0804047800447D400020406F
:1001F000443D007F1028440000417F40007C04788B
:1002000004787C0804047838444444387C1414147A
:1002100008081414147C007C080404485454542026
:1002200004043F44443C4040207C1C2040201C3CB3
:100230004030403C44281028440C5050503C44640A
:10024000544C44000836414100007F0000414136D3
:10025000080002010204020011241FBECFEFD0E10A
:10026000DEBFCDBF15E0A0E0B1E0E6EEF0EA02C0EF
:1002700005900D92AC35B107D9F717E0ACE5B5E0C4
:1002800001C01D92AA35B107E1F70E94E1170C9455
:1002900071500C9400001F920F920FB60F92112410
:1002A0008F939F93AF93BF938091890590918A0517
:1002B000A0918B05B0918C050196A11DB11D809375
:1002C000890590938A05A0938B05B0938C0584E4EF
:1002D00086BDBF91AF919F918F910F900FBE0F90F0
:1002E0001F9018951F920F920FB60F9211248F93A3
:1002F0009F938091000690E09093890080938800FE
:100300009F918F910F900FBE0F901F9018951F9285
:100310000F920FB60F9211248F9380915C05882362
:1003200029F481E080935C05299A03C010925C0552
:1003300029988F910F900FBE0F901F9018951F93C3
:10034000CF93DF93EB01888329816A8170E0620F8C
:10035000711D680F711D2B81620F711D2C81620F41
:10036000711D882777FD8095982F0E94D44920E041
:1003700030E040EA50E40E9438489B01AC016093B1
:10038000B3057093B4058093B5059093B60584E0EA
:1003900009C0FE01E80FF11D8291319680838091A2
:1003A000170681508093170680911706882389F7D6
:1003B00010E0CA01B90120E030E040E05FE30E94B4
:1003C000144918160CF411E0812FDF91CF911F9181
:1003D00008957F928F929F92AF92BF92CF92DF92B9
:1003E000EF92FF920F931F93CF93DF93EC01109244
:1003F00017067090BF058090C00599242EEFA22E9D
:10040000BB24BA9496E4C92E24C0E12FF0E0EE0F8D
:10041000FF1FEE0FFF1FEC0FFD1FD080E180F28069
:1004200003816D2D7E2D8F2D902F292D3A2D4B2D53
:100430005C2D0E94744987FD04C0D92C75010C2DD8
:1004400002C0712E88241F5F109317069D2C570140
:10045000C02E109117061830C0F27092BF0580921E
:10046000C005872D982DDF91CF911F910F91FF909F
:10047000EF90DF90CF90BF90AF909F908F907F9044
:1004800008959F92AF92BF92CF92DF92EF92FF9228
:100490000F931F93CF93DF93FC01A081DD24D394AE
:1004A000AD25C180CD248C2D8A23C82FD0E0E090CB
:1004B0007205409173056091720550917405209109
:1004C00072058091730590907205A0907305B090AD
:1004D000730590E030E0822393238C239D239C01BD
:1004E00013E0220F331F1A95E1F7880F991F280F89
:1004F000391F82818D25589FF00111242E0F3F1F37
:1005000070E0660F771F660F771FB0E06A9FF001FB
:100510006B9FF00D7A9FF00D112480E090E050E089
:10052000FF244E215F214C235D23452B11F481E0F4
:1005300090E0E89FA001E99F500DF89F500D112415
:10054000420F531F2B2D30E0C901880F991F820FD6
:10055000931F2C2D30E0829FF001839FF00D929F1E
:10056000F00D112460E070E08A2D90E0292D30E03C
:10057000822393238C239D23892B11F461E070E067
:10058000E69FC001E79F900DF69F900D1124480F44
:10059000591FBA01882777FD8095982F0E94D4496A
:1005A000DF91CF911F910F91FF90EF90DF90CF904F
:1005B000BF90AF909F9008954F925F926F927F92FD
:1005C0008F929F92AF92BF92CF92DF92EF92FF9263
:1005D0000F931F936C0180907D0590907E05A090F5
:1005E0007F05B09080054090810550908205609015
:1005F000830570908405FC01608170E0882777FD99
:100600008095982F0E94D4492AE939E949E95FE3A6
:100610000E943E477B018C01F601618170E08827D2
:1006200077FD8095982F0E94D4499B01AC010E94D0
:1006300011479B01AC01C801B7010E9411477B0122
:100640008C01F601628170E0882777FD8095982FF4
:100650000E94D4492DEC3CEC4CE45FE30E943E4701
:100660009B01AC01C801B7010E9411477B018C01BD
:10067000C501B401A30192010E9411479B01AC0185
:10068000C801B7010E94E0461F910F91FF90EF90C3
:10069000DF90CF90BF90AF909F908F907F906F90A2
:1006A0005F904F900895EF92FF920F931F930E94D7
:1006B000DC027B018C0120E030E040E050E00E9451
:1006C000444987FF04C0EE24FF2400E010E0B70196
:1006D000C8011F910F91FF90EF900895EF92FF9244
:1006E0000F931F930E94DC027B018C0120E030E01D
:1006F00040E050E00E94744987FD05C060E070E072
:1007000080E090E003C0C801B70190581F910F919D
:10071000FF90EF9008955F926F927F928F929F92D9
:10072000AF92BF92CF92DF92EF92FF920F931F93FF
:10073000CF93DF936C013B014A01109217065524B9
:10074000539448C0C82FD0E05E01AA0CBB1CAA0C71
:10075000BB1CF301EA0DFB1DE080F18002811381D7
:10076000C801B70120E030E040E050E00E94744949
:10077000882344F580916905882321F5C801B701D4
:1007800020E030E040E85FEB0E94A4491816D4F066
:1007900084010A0D1B1DF8016081718182819381A2
:1007A00020E030E040E85FE30E94E046F80160832B
:1007B00071838283938380911706F601E80FF11D00
:1007C000508203C0CC0DDD1D1882809117068F5F0B
:1007D0008093170680911706883008F4B3CFDF9115
:1007E000CF911F910F91FF90EF90DF90CF90BF902E
:1007F000AF909F908F907F906F905F9008955F92E1
:100800006F927F928F929F92AF92BF92CF92DF9220
:10081000EF92FF920F931F93CF93DF933C014B0115
:100820005A01109217065524539481C0C82FD0E066
:100830006E01CC0CDD1CCC0CDD1CCA0CDB1CF601E3
:10084000E080F18002811381C801B70120E030E02F
:1008500040E050E40E94444987FF19C0C801B70135
:1008600020E030E040E85FE30E94444988230CF434
:1008700056C08091890590918A05A0918B05B09111
:100880008C0580589F44A241B04008F448C0609154
:100890005D0570915E0580915F05909160052AE984
:1008A00039E949E95EE30E9444498823C4F1F30130
:1008B000EC0FFD1F8081882391F5C801B70120E06E
:1008C00030E040E85FE30E94E046F6016083718318
:1008D0008283938380911706C82FD0E0CC0FDD1F51
:1008E000CC0FDD1FCA0DDB1D688179818A819B8158
:1008F00020E030E040E050E00E947449882344F456
:1009000080E090E0A0E0B0E088839983AA83BB8375
:1009100080911706F401E80FF11D508203C0C80D45
:10092000D91D1882809117068F5F809317068091DA
:100930001706883008F47ACFDF91CF911F910F917D
:10094000FF90EF90DF90CF90BF90AF909F908F90EF
:100950007F906F905F9008954F925F926F927F9219
:100960008F929F92BF92CF92DF92EF92FF920F935E
:100970001F93DF93CF9300D000D000D0CDB7DEB768
:100980006C014B017A0110921706E4E06E2E712C77
:100990006C0E7D1E2E010894411C511CBB24B39487
:1009A0008DC08091890590918A05A0918B05B091A9
:1009B0008C0580509345A740B04068F08091890530
:1009C00090918A05A0918B05B0918C058154944239
:1009D000A441B04080F0A32FB0E0FD01EE0FFF1F57
:1009E000EA0FFB1FEC0DFD1D8081882321F0AE0D69
:1009F000BF1DBC9242C080917205909173052091F9
:100A0000740589839A832B8310920D06432F50E03F
:100A10009A01220F331F240F351F2C0D3D1D0CC0D2
:100A2000E92FF0E0D301AE0FBF1FE20FF31F80816B
:100A30008C939F5F90930D0690910D06933080F3F9
:100A400010920D0690E015C0A92FB0E0F201EA0F58
:100A5000FB1F8081882361F4A60DB71D8C9188232C
:100A600039F090930D064E0D5F1DFA01B08205C05E
:100A70009F5F933048F390930D0680911706082FDF
:100A800010E0F801EE0FFF1FEE0FFF1FE80DF91D3C
:100A900060817181828193819F7720E030E040E026
:100AA00050E40E941449181624F40E0D1F1DF8017D
:100AB000B082809117068F5F8093170630911706DA
:100AC000383008F46ECF26960FB6F894DEBF0FBE0E
:100AD000CDBFCF91DF911F910F91FF90EF90DF90ED
:100AE000CF90BF909F908F907F906F905F904F902E
:100AF00008952F923F924F925F926F927F929F92B2
:100B0000AF92BF92CF92DF92EF92FF920F931F931B
:100B1000CF93DF931C013A012901109217060F2E83
:100B2000F0E0CF2EF0E0DF2EF0E0EF2EF0E0FF2E31
:100B3000F02D2BC0C02FD0E0FE01EE0FFF1FEE0FF7
:100B4000FF1FE20DF31D9080A180B2801381692DFB
:100B50007A2D8B2D912FA70196010E94144918160A
:100B60002CF4C60DD71D8881882331F0D701C6012A
:100B70009C2CA92EBA2E1B2F0F5F00931706892DD0
:100B80009A2DAB2DB12F6C017D0100911706083015
:100B900088F21092170636C0C701B60120E030E097
:100BA00040E050E00E94E448E02FF0E0882379F430
:100BB000EE0FFF1FEE0FFF1FE40DF51D80E090E02C
:100BC000A0E0B0E080839183A283B38316C0EE0FD0
:100BD000FF1FEE0FFF1F82010E0F1F1FE20DF31DFF
:100BE0006081718182819381A70196010E943848BA
:100BF000F8016083718382839383809117068F5FEE
:100C00008093170600911706083030F2DF91CF91DC
:100C10001F910F91FF90EF90DF90CF90BF90AF901A
:100C20009F907F906F905F904F903F902F9008958E
:100C3000AC011092170624C010920D0618C030E0C7
:100C400090E0FC01EE0FFF1FE80FF91FE40FF51F06
:100C5000E20FF31F02C0959587952A95E2F7817000
:100C60009070808380910D068F5F80930D06209198
:100C70000D0680911706233010F38F5F80931706BF
:100C8000809117068830C0F20895BC0110921706B3
:100C900020E030E040E050E010C0F0E0EE0FFF1F39
:100CA000EE0FFF1FE60FF71F20833183428353832C
:100CB000809117068F5F80931706E0911706E83042
:100CC00060F30895559AE0E8F0E0808181688083C0
:100CD000E1E8F0E080818A60808385E080936F00A6
:100CE000109289001092880010928B0010928A0056
:100CF000089520E030E040E05FE30E943E4720E0BE
:100D000030E04FE753E40E943E4725EB32E349E7EA
:100D10005FE30E943E4723E938E144E85DE30E9437
:100D2000E0460E94324A60930006809100060895D2
:100D3000E4E6F0E0808182698083089514BC15BCEC
:100D400085B5836085BDEEE6F0E0808181608083BB
:100D500084E486BD1092890510928A0510928B0555
:100D600010928C050895EF92FF920F931F93DF93DB
:100D7000CF93CDB7DEB72A970FB6F894DEBF0FBE7C
:100D8000CDBF80E090E00E94C91B80EE9FEF0E94E3
:100D9000C41B6091890570918A0580918B059091A3
:100DA0008C0528EE33E040E050E00E941B4DDA0154
:100DB000C90189016CE370E00E94F44C7C016091F0
:100DC000890570918A0580918B0590918C0524EF9F
:100DD00031E040E050E00E941B4D68327105810512
:100DE000910508F022C28091CA05882309F0FCC051
:100DF00081E08093CA0580E00E941D3680E00E9459
:100E0000593080E00E940B2B80E00E94402580E05A
:100E10000E94534360915D0570915E0580915F056E
:100E20009091600520E030E040E05FE30E9474496B
:100E30008823BCF480E00E9453438CE10E9453431A
:100E40008FE20E94534384E40E94534387E50E944B
:100E5000534385E060E00E94553685E00E948D3066
:100E600033C060915D0570915E0580915F05909142
:100E7000600520E030E040E05FE30E94144918166E
:100E80003CF560915D0570915E0580915F059091E4
:100E9000600520E030E040E85FE30E94A4491816B6
:100EA000BCF080E00E9453438CE10E9453438FE2E8
:100EB0000E94534384E40E94534387E50E945343B6
:100EC00085E06CE10E94553685E00E94432B33C0DB
:100ED00060915D0570915E0580915F059091600560
:100EE00020E030E040E85FE30E941449181644F522
:100EF00060915D0570915E0580915F059091600540
:100F000020E030E040EC5FE30E94A4491816C4F0F2
:100F100080E00E9453438CE10E9453438FE20E9481
:100F2000534384E40E94534387E50E94534385E082
:100F30006FE20E94553685E00E94742585E092C0DC
:100F400060915D0570915E0580915F0590916005EF
:100F500020E030E040EC5FE30E941449181624F5CD
:100F600060915D0570915E0580915F0590916005CF
:100F700020E030E040E050E40E94A4491816A4F0BC
:100F800080E00E9453438CE10E9453438FE20E9411
:100F9000534384E40E94534387E50E94534385E012
:100FA00064E40E945536CACF60915D0570915E057C
:100FB00080915F059091600520E030E040E050E4D2
:100FC0000E94144918160CF01DC160915D057091C6
:100FD0005E0580915F059091600520E030E040E281
:100FE00050E40E94A4490EC11092CA0585E00E94F7
:100FF0001D3685E00E94593085E00E940B2B85E06C
:101000000E94402580E00E94534360915D057091ED
:101010005E0580915F059091600520E030E040E042
:101020005FE30E947449882304F580E00E945343E3
:101030008CE10E9453438FE20E94534384E40E9458
:10104000534387E50E94534380E060E00E94553699
:1010500080E00E948D3080E00E94432B80E00E945F
:10106000742580E00E942020E0C060915D057091B1
:101070005E0580915F059091600520E030E040E0E2
:101080005FE30E941449181624F560915D05709184
:101090005E0580915F059091600520E030E040E8BA
:1010A0005FE30E94A4491816A4F080E00E94534315
:1010B0008CE10E9453438FE20E94534384E40E94D8
:1010C000534387E50E94534380E06CE10E9455360C
:1010D000C2CF60915D0570915E0580915F05909132
:1010E000600520E030E040E85FE30E9414491816F4
:1010F00024F560915D0570915E0580915F0590918A
:10110000600520E030E040EC5FE30E94A44918163F
:10111000A4F080E00E9453438CE10E9453438FE28D
:101120000E94534384E40E94534387E50E94534343
:1011300080E06FE20E94553691CF60915D0570911D
:101140005E0580915F059091600520E030E040EC05
:101150005FE30E941449181624F560915D057091B3
:101160005E0580915F059091600520E030E040E0F1
:1011700050E40E94A4491816A4F080E00E94534352
:101180008CE10E9453438FE20E94534384E40E9407
:10119000534387E50E94534380E064E40E94553640
:1011A00060CF60915D0570915E0580915F059091C3
:1011B000600520E030E040E050E40E941449181639
:1011C0000CF560915D0570915E0580915F059091D1
:1011D000600520E030E040E250E40E94A449181687
:1011E0008CF080E00E9453438CE10E9453438FE2D5
:1011F0000E94534384E40E94534387E50E94534373
:1012000080E010C080E00E9453438CE10E94534371
:101210008FE20E94534384E40E94534387E50E9477
:10122000534385E067E50E945536C8016CE370E0E2
:101230000E94F44C80E090E08E010F5F1F4FA801E8
:101240002AE030E00E947F4DC80160E071E00E941A
:10125000744D8AE0E816F10428F4C80162E071E0F8
:101260000E94744D8E010F5F1F4FF8010190002006
:10127000E9F7B70180E090E03197AF012AE030E074
:101280000E947F4D86EE90E062E870E00E94B41B01
:10129000C80160E00E94991B84E091E060E00E9438
:1012A000991B84E091E060E00E94991B84E091E04A
:1012B00060E00E94991B2A960FB6F894DEBF0FBE1D
:1012C000CDBFCF91DF911F910F91FF90EF900895C7
:1012D0000F931F93DF93CF93CDB7DEB7C85DD14097
:1012E0000FB6F894DEBF0FBECDBFDE011196E4EF5E
:1012F000F2E088E001900D928150E1F729813A8176
:101300004B815C816D817E818F8198850FEF1FEF0E
:101310000E941F19DE011996ECEEF2E088E00190C0
:101320000D928150E1F729853A854B855C856D8565
:101330007E858F8598890FEF1FEF0E941F19DE01B0
:101340005196E4EEF2E088E001900D928150E1F7D1
:1013500029893A894B895C896D897E898F89988D25
:101360000FEF1FEF0E941F19DE015996ECEDF2E01E
:1013700088E001900D928150E1F7298D3A8D4B8DD7
:101380005C8D6D8D7E8D8F8D98A10FEF1FEF0E946C
:101390001F19DE019196E4EDF2E088E001900D92D4
:1013A0008150E1F729A13AA14BA15CA16DA17EA1D9
:1013B0008FA198A50FEF1FEF0E941F19DE019996CC
:1013C000ECECF2E088E001900D928150E1F729A564
:1013D0003AA54BA55CA56DA57EA58FA598A90FEF95
:1013E0001FEF0E941F19DE01D196E4ECF2E088E0C5
:1013F00001900D928150E1F729A93AA94BA95CA966
:101400006DA97EA98FA998AD0FEF1FEF0E941F193C
:10141000DE01D996ECEBF2E088E001900D9281506C
:10142000E1F729AD3AAD4BAD5CAD6DAD7EAD8FADA5
:10143000FE01E05CFF4F90810FEF1FEF0E941F192C
:10144000DE01AF5BBF4FE4EBF2E088E001900D926C
:101450008150E1F7FE01EF5BFF4F2081FE01EE5B63
:10146000FF4F3081FE01ED5BFF4F4081FE01EC5BE1
:10147000FF4F5081FE01EB5BFF4F6081FE01EA5B95
:10148000FF4F7081FE01E95BFF4F8081FE01E85B49
:10149000FF4F90810FEF1FEF0E941F19DE01A75B26
:1014A000BF4FECEAF2E088E001900D928150E1F745
:1014B000FE01E75BFF4F20813181428153816481CE
:1014C0007581868197810FEF1FEF0E941F19DE0142
:1014D000AF5ABF4FE4EAF2E088E001900D928150EC
:1014E000E1F7FE01EF5AFF4F2081318142815381A4
:1014F00064817581868197810FEF1FEF0E941F190C
:10150000DE01A75ABF4FECE9F2E088E001900D92AE
:101510008150E1F7FE01E75AFF4F2081318142817E
:10152000538164817581868197810FEF1FEF0E943F
:101530001F19DE01AF59BF4FE4E9F2E088E00190E6
:101540000D928150E1F7FE01EF59FF4F208131816B
:101550004281538164817581868197810FEF1FEFEE
:101560000E941F19DE01A759BF4FECE8F2E088E0A6
:1015700001900D928150E1F7FE01E759FF4F208164
:1015800031814281538164817581868197810FEF1A
:101590001FEF0E941F19DE01AF58BF4FE4E8F2E0D1
:1015A00088E001900D928150E1F7FE01EF58FF4F66
:1015B0002081318142815381648175818681978147
:1015C0000FEF1FEF0E941F19DE01A758BF4FECE776
:1015D000F2E088E001900D928150E1F7FE01E758BA
:1015E000FF4F2081318142815381648175818681E1
:1015F00097810FEF1FEF0E941F19DE01AF57BF4FFA
:10160000E4E7F2E088E001900D928150E1F7FE01FD
:10161000EF57FF4F20813181428153816481758171
:10162000868197810FEF1FEF0E941F19DE01A757D8
:10163000BF4FECE6F2E088E001900D928150E1F7B7
:10164000FE01E757FF4F2081318142815381648140
:101650007581868197810FEF1FEF0E941F19DE01B0
:10166000AF56BF4FE4E6F2E088E001900D92815062
:10167000E1F7FE01EF56FF4F208131814281538116
:1016800064817581868197810FEF1FEF0E941F197A
:10169000DE01A756BF4FECE5F2E088E001900D9225
:1016A0008150E1F7FE01E756FF4F208131814281F1
:1016B000538164817581868197810FEF1FEF0E94AE
:1016C0001F19DE01AF55BF4FE4E5F2E088E001905D
:1016D0000D928150E1F7FE01EF55FF4F20813181DE
:1016E0004281538164817581868197810FEF1FEF5D
:1016F0000E941F19DE01A755BF4FECE4F2E088E01D
:1017000001900D928150E1F7FE01E755FF4F2081D6
:1017100031814281538164817581868197810FEF88
:101720001FEF0E941F19DE01AF54BF4FE4E4F2E047
:1017300088E001900D928150E1F7FE01EF54FF4FD8
:1017400020813181428153816481758186819781B5
:101750000FEF1FEF0E941F19DE01A754BF4FECE3EC
:10176000F2E088E001900D928150E1F7FE01E7542C
:10177000FF4F20813181428153816481758186814F
:1017800097810FEF1FEF0E941F19DE01AF53BF4F6C
:10179000E4E3F2E088E001900D928150E1F7FE0170
:1017A000EF53FF4F208131814281538164817581E4
:1017B000868197810FEF1FEF0E941F19DE01A7534B
:1017C000BF4FECE2F2E088E001900D928150E1F72A
:1017D000FE01E753FF4F20813181428153816481B3
:1017E0007581868197810FEF1FEF0E941F19DE011F
:1017F000AF52BF4FE4E2F2E088E001900D928150D9
:10180000E1F7FE01EF52FF4F208131814281538188
:1018100064817581868197810FEF1FEF0E941F19E8
:10182000DE01A752BF4FECE1F2E088E001900D929B
:101830008150E1F7FE01E752FF4F20813181428163
:101840005381648175818681978100E010E00E9458
:101850001F19DE01AF51BF4FE4E1F2E088E00190D3
:101860000D928150E1F7FE01EF51FF4F2081318150
:1018700042815381648175818681978100E010E007
:101880000E941F19DE01A751BF4FECE0F2E088E093
:1018900001900D928150E1F7FE01E751FF4F208149
:1018A000318142815381648175818681978100E015
:1018B00010E00E941F19DE01AF50BF4FE4E0F2E0DC
:1018C00088E001900D928150E1F7FE01EF50FF4F4B
:1018D0002081318142815381648175818681978124
:1018E00000E010E00E941F19DE01A750BF4FECEF8F
:1018F000F1E088E001900D928150E1F7FE01E750A0
:10190000FF4F2081318142815381648175818681BD
:10191000978100E010E00E941F19DE01AF5FBE4F0B
:10192000E4EFF1E088E001900D928150E1F7FE01D3
:10193000EF5FFE4F20813181428153816481758147
:101940008681978100E010E00E941F19DE01A75FE9
:10195000BE4FECEEF1E088E001900D928150E1F78E
:10196000FE01E75FFE4F2081318142815381648116
:1019700075818681978100E010E00E941F19DE01C9
:10198000AF5EBE4FE4EEF1E088E001900D92815031
:10199000E1F7FE01EF5EFE4F2081318142815381EC
:1019A000648175818681978100E010E00E941F1993
:1019B000DE01A75EBE4FECEDF1E088E001900D92F4
:1019C0008150E1F7FE01E75EFE4F208131814281C7
:1019D0005381648175818681978100E010E00E94C7
:1019E0001F19DE01AF5DBE4FE4EDF1E088E001902C
:1019F0000D928150E1F7FE01EF5DFE4F20813181B4
:101A000042815381648175818681978100E010E075
:101A10000E941F19DE01A75DBE4FECECF1E088E0EB
:101A200001900D928150E1F7FE01E75DFE4F2081AC
:101A3000318142815381648175818681978100E083
:101A400010E00E941F19DE01AF5CBE4FE4ECF1E034
:101A500088E001900D928150E1F7FE01EF5CFE4FAE
:101A60002081318142815381648175818681978192
:101A700000E010E00E941F19DE01A75CBE4FECEBF6
:101A8000F1E088E001900D928150E1F7FE01E75C02
:101A9000FE4F20813181428153816481758186812D
:101AA000978100E010E00E941F19DE01AF5BBE4F7E
:101AB000E4EBF1E088E001900D928150E1F7FE0146
:101AC000EF5BFE4F208131814281538164817581BA
:101AD0008681978100E010E00E941F19DE01A75B5C
:101AE000BE4FECEAF1E088E001900D928150E1F701
:101AF000FE01E75BFE4F2081318142815381648189
:101B000075818681978100E010E00E941F19DE0137
:101B1000AF5ABE4FE4EAF1E088E001900D928150A7
:101B2000E1F7FE01EF5AFE4F20813181428153815E
:101B3000648175818681978100E010E00E941F1901
:101B4000DE01A75ABE4FECE9F1E088E001900D926A
:101B50008150E1F7FE01E75AFE4F20813181428139
:101B60005381648175818681978100E010E00E9435
:101B70001F19DE01AF59BE4FE4E9F1E088E00190A2
:101B80000D928150E1F7FE01EF59FE4F2081318126
:101B900042815381648175818681978100E010E0E4
:101BA0000E941F19DE01A759BE4FECE8F1E088E062
:101BB00001900D928150E1F7FE01E759FE4F20811F
:101BC000318142815381648175818681978100E0F2
:101BD00010E00E941F19DE01AF58BE4FE4E8F1E0AB
:101BE00088E001900D928150E1F7FE01EF58FE4F21
:101BF0002081318142815381648175818681978101
:101C000000E010E00E941F19DE01A758BE4FECE76C
:101C1000F1E088E001900D928150E1F7FE01E75874
:101C2000FE4F20813181428153816481758186819B
:101C3000978100E010E00E941F19DE01AF57BE4FF0
:101C4000E4E7F1E088E001900D928150E1F7FE01B8
:101C5000EF57FE4F2081318142815381648175812C
:101C60008681978100E010E00E941F19DE01A757CE
:101C7000BE4FECE6F1E088E001900D928150E1F773
:101C8000FE01E757FE4F20813181428153816481FB
:101C900075818681978100E010E00E941F19DE01A6
:101CA000AF56BE4FE4E6F1E088E001900D9281501E
:101CB000E1F7FE01EF56FE4F2081318142815381D1
:101CC000648175818681978100E010E00E941F1970
:101CD000DE01A756BE4FECE5F1E088E001900D92E1
:101CE0008150E1F7FE01E756FE4F208131814281AC
:101CF0005381648175818681978100E010E00E94A4
:101D00001F19DE01AF55BE4FE4E5F1E088E0019018
:101D10000D928150E1F7FE01EF55FE4F2081318198
:101D200042815381648175818681978100E010E052
:101D30000E941F19DE01A755BE4FECE4F1E088E0D8
:101D400001900D928150E1F7FE01E755FE4F208191
:101D5000318142815381648175818681978100E060
:101D600010E00E941F19DE01AF54BE4FE4E4F1E021
:101D700088E001900D928150E1F7FE01EF54FE4F93
:101D8000208131814281538164817581868197816F
:101D900000E010E00E941F19DE01A754BE4FECE3E3
:101DA000F1E088E001900D928150E1F7FE01E754E7
:101DB000FE4F20813181428153816481758186810A
:101DC000978100E010E00E941F19DE01AF53BE4F63
:101DD000E4E3F1E088E001900D928150E1F7FE012B
:101DE000EF53FE4F2081318142815381648175819F
:101DF0008681978100E010E00E941F19DE01A75341
:101E0000BE4FECE2F1E088E001900D928150E1F7E5
:101E1000FE01E753FE4F208131814281538164816D
:101E200075818681978100E010E00E941F19DE0114
:101E3000AF52BE4FE4E2F1E088E001900D92815094
:101E4000E1F7FE01EF52FE4F208131814281538143
:101E5000648175818681978100E010E00E941F19DE
:101E6000C852DE4F0FB6F894DEBF0FBECDBFCF9184
:101E7000DF911F910F9108950F931F93DF93CF93DD
:101E8000CDB7DEB728970FB6F894DEBF0FBECDBF33
:101E9000DE011196ECEFF2E088E001900D928150A6
:101EA000E1F729813A814B815C816D817E818F814F
:101EB000988500EE1FEF0E941F1928960FB6F89420
:101EC000DEBF0FBECDBFCF91DF911F910F9108955F
:101ED00080918F058823D1F481E080938F05109243
:101EE000890510928A0510928B0510928C0580E06E
:101EF0000E944D1F80E090E0A0E0B0E080935D057F
:101F000090935E05A0935F05B093600508952F92AE
:101F10003F924F925F926F927F928F929F92AF9279
:101F2000BF92CF92DF92EF92FF920F931F93DF93B6
:101F3000CF93CDB7DEB7CC55D1400FB6F894DEBF06
:101F40000FBECDBFC55ADE4F8883CB55D140C45A92
:101F5000DE4F9883CC55D140FE01319688E0DF01F9
:101F60001D928A95E9F763E4862E912C8C0E9D1EB6
:101F7000C4010E9418065BE5A52EB12CAC0EBD1E57
:101F8000C5010E9445064BE7C42ED12CCC0EDD1EA8
:101F9000C6010E9445063BEBE32EF12CEC0EFD1E24
:101FA000C7010E9445068E0105561F4FC8010E94B9
:101FB0004506CE0185529F4F0E9445061092170696
:101FC0003701280103E057C0109FC0011124880D7C
:101FD000991D0E945303E12FF0E0EE0FFF1FEE0F5B
:101FE000FF1FEA0DFB1D6083718382839383109131
:101FF0001706109FC0011124880D991D0E944102EF
:10200000E12FF0E0EE0FFF1FEE0FFF1FEC0DFD1DA7
:10201000608371838283938310911706109FC001A0
:102020001124880D991D0E946E03E12FF0E0EE0F40
:10203000FF1FEE0FFF1FE40DF51D60837183828388
:10204000938310911706109FC0011124880D991DCC
:102050000E94DC02E12FF0E0EE0FFF1FEE0FFF1FEA
:10206000E60DF71D60837183828393838091170649
:102070008F5F8093170610911706183008F4A4CFCD
:1020800088E08E01075F1F4FF801282F11922A95D3
:10209000E9F7E1E1EE2EF12CEC0EFD1ED7011D92C9
:1020A0008A95E9F7C801B301A2010E948B03C80118
:1020B000B701A50196010E94FF03C401B5018E017D
:1020C0000F5F1F4FA8010E94AC0490E048017BE520
:1020D000A72EB12CAC0EBD1E20E03CEF4FE756E41E
:1020E0006BE7C62ED12CCC0EDD1E8E0105561F4F80
:1020F000BE0165547F4F29C0A92FB0E0F401EA0F5B
:10210000FB1F8081882301F1AA0FBB1FAA0FBB1FF1
:10211000F501EA0FFB1F2083318342835383F601CD
:10212000EA0FFB1F2083318342835383F801EA0FB8
:10213000FB1F2083318342835383A60FB71F2D9348
:102140003D934D935C9313979F5F9830A8F29093C3
:1021500017068E010D5B1F4FABEFAA2EB12CAC0EF4
:10216000BD1ECE01855A9F4FB801A40195010E9462
:102170007905FBE1CF2EF1E0DF2ECC0EDD1ECE0186
:1021800085589F4FB801A40196010E947905EBE3A1
:10219000EE2EE1E0FE2EEC0EFD1ECE0185569F4F89
:1021A000B801A40197010E94790588247BED472E90
:1021B000512C4C0E5D1E160137014AC0082D10E04F
:1021C000000F111F000F111F5201A00EB11EEBEFE7
:1021D000F0E0EC0FFD1FE00FF11F60817181828143
:1021E00093812DEC3CEC4CE45EE30E943E476B0196
:1021F0007C01F101E00FF11F608171818281938187
:1022000020E030E040E05FE30E943E479B01AC01EC
:10221000C701B6010E9411476B017C01060D171D15
:10222000F80160817181828193812AE939E949E964
:102230005EE30E943E479B01AC01C701B6010E94CC
:102240001147D5016D937D938D939C931397839440
:10225000B7E0B81508F0B2CF80921706C2010E940D
:10226000E9012C01FE01E55AFF4F880F991F880FE5
:10227000991FE80FF91FA080B180C280D380FE01B2
:10228000E40DF51D8185882341F1E0905D05F09016
:102290005E0500915F05109160056091F8057091F1
:1022A000F9058091FA059091FB0529E838E848E89E
:1022B0005CE30E943E479B01AC01C801B7010E944C
:1022C000114760935D0570935E0580935F05909361
:1022D000600581E08093680502C010926805FE01E8
:1022E000E40DF51D8189882341F1E0905D05F090B2
:1022F0005E0500915F05109160056091F805709191
:10230000F9058091FA059091FB0529E838E848E83D
:102310005CEB0E943E479B01AC01C801B7010E94E3
:10232000114760935D0570935E0580935F05909300
:10233000600581E08093690502C010926905A09252
:102340006A05B0926B05C0926C05D0926D05FE01D6
:10235000ED5BFF4FC201880F991F840D951DE80F9B
:10236000F91F808180936505818180936605828154
:102370008093670560916A0570916B0580916C058B
:1023800090916D0520E030E040E05FE30E943E4721
:1023900020E030E04FE753E40E943E4725EB32E374
:1023A00049E75FE30E943E4723E938E144E85DE303
:1023B0000E94E0460E94324A609300068091000627
:1023C000809165050E94411F809166050E94471F0C
:1023D000809167050E944D1F809168050E94351FFE
:1023E000809169050E943B1F85EA90E067EB70E0F1
:1023F0000E94B41B80E090E00E94C91B80EE9FEF1A
:102400000E94C41B86E091E060E00E94991B86E474
:1024100090E064E670E00E94B41B80E090E00E94CF
:10242000C91B80EE9FEF0E94C41B60916A057091EA
:102430006B0580916C0590916D0520E030E048ECD3
:1024400052E40E943E476093C6057093C70580938F
:10245000C8059093C9050E94324A8B019C01EDB7D3
:10246000FEB73A970FB6F894FEBF0FBEEDBF319698
:1024700039E3E32EF12CEC0EFD1EADB7BEB712967C
:10248000FC92EE9211978AE090E09383828381E13F
:1024900091E095838483C80164E670E00E94084D52
:1024A00077836683C80164E670E00E94084D9187D7
:1024B00080870E94B34DEDB7FEB73A960FB6F894F9
:1024C000FEBF0FBEEDBFC70160E00E94991BDE0199
:1024D0005996ECE2F3E088E001900D928150E1F72B
:1024E00080916505882359F0298D3A8D4B8D5C8D3F
:1024F0006D8D7E8D8F8D98A100EE17E00AC0298D1D
:102500003A8D4B8D5C8D6D8D7E8D8F8D98A100E009
:1025100018EF0E941F1986EB90E064ED70E00E94B6
:10252000B41B80E090E00E94C91B80EE9FEF0E94E8
:10253000C41B20916505309165058DB79EB70A973C
:102540000FB6F8949EBF0FBE8DBFEDB7FEB73196A4
:10255000CE01C996ADB7BEB712969C938E931197D4
:102560008AE090E09383828381E191E09583848384
:1025700026831782308711860E94B34DEDB7FEB7D0
:102580003A960FB6F894FEBF0FBEEDBF89AD60E07E
:102590000E94721ADE019196E4E2F3E088E0019075
:1025A0000D928150E1F780916605882359F029A1A9
:1025B0003AA14BA15CA16DA17EA18FA198A500EECF
:1025C00017E00AC029A13AA14BA15CA16DA17EA18F
:1025D0008FA198A500E018EF0E941F198FEC90E0E2
:1025E00064ED70E00E94B41B80E090E00E94C91B83
:1025F00080EE9FEF0E94C41B209166053091660516
:102600008DB79EB70A970FB6F8949EBF0FBE8DBFC9
:10261000EDB7FEB73196CE01C996ADB7BEB71296EB
:102620009C938E9311978AE090E09383828381E15B
:1026300091E09583848326831782308711860E94D8
:10264000B34DEDB7FEB73A960FB6F894FEBF0FBE86
:10265000EDBF89AD60E00E94721ADE019996ECE14F
:10266000F3E088E001900D928150E1F780916705D9
:10267000882359F029A53AA54BA55CA56DA57EA593
:102680008FA598A900EE17E00AC029A53AA54BA589
:102690005CA56DA57EA58FA598A900E018EF0E9406
:1026A0001F1988EE90E064ED70E00E94B41B80E09A
:1026B00090E00E94C91B80EE9FEF0E94C41B809196
:1026C0006705909167052DB73EB72A5030400FB689
:1026D000F8943EBF0FBE2DBFEDB7FEB7319629E38C
:1026E000622E712C6C0E7D1EADB7BEB712967C9219
:1026F0006E9211970AE0802E912C9382828211E1D2
:10270000A12E11E0B12EB582A48286831782908714
:1027100011860E94B34DEDB7FEB73A960FB6F89406
:10272000FEBF0FBEEDBF89AD60E00E94721A80EF60
:1027300090E061E170E00E94B41B80E090E00E94B4
:10274000C91B80EE9FEF0E94C41B60915D057091D4
:102750005E0580915F059091600520E030E048ECD7
:1027600052E40E943E476093610570936205809336
:102770006305909364056091610570916205809195
:10278000630590916405C0906105D0906205E0906A
:102790006305F09064052DB73EB72A5030400FB660
:1027A000F8943EBF0FBE2DBF0DB71EB70F5F1F4F72
:1027B000ADB7BEB712967C926E921197F8019382D4
:1027C0008282B582A4820E94324ADC01CB0164E697
:1027D00070E00E94084DD80117967C936E9316976F
:1027E000C701B6010E94324ADC01CB0164E670E009
:1027F0000E94084DF801918780870E94B34D2DB744
:102800003EB7265F3F4F0FB6F8943EBF0FBE2DBFB9
:1028100089AD61E00E94721A8AAD61E00E94721A6D
:102820008BAD61E00E94721A8CAD61E00E94721A59
:10283000809168058823E1F0809169058823C1F4BF
:10284000DE01D196E4E1F3E088E001900D92815041
:10285000E1F729A93AA94BA95CA96DA97EA98FA97D
:1028600098AD00EE17E00E941F190E94680935C05C
:10287000809168058823D1F4809169058823B1F09F
:102880000E943C0FDE01D196ECE0F3E088E001907D
:102890000D928150E1F729A93AA94BA95CA96DA92C
:1028A0007EA98FA998AD00E018EF15C00E943C0FDB
:1028B000DE01D196E4E0F3E088E001900D928150D2
:1028C000E1F729A93AA94BA95CA96DA97EA98FA90D
:1028D00098AD0FE110E00E941F19FE01ED5BFF4F64
:1028E0009201220F331F240D351DC55ADE4F48813A
:1028F000CB55D140C45ADE4F5881CC55D140CA0186
:10290000DC01E20FF31F83E001900D928150E1F7AB
:10291000C45ADE4F0FB6F894DEBF0FBECDBFCF91C5
:10292000DF911F910F91FF90EF90DF90CF90BF90BC
:10293000AF909F908F907F906F905F904F903F905F
:102940002F900895AF92BF92CF92DF92EF92FF92B5
:102950000F931F93DF93CF93CDB7DEB72D970FB6AD
:10296000F894DEBF0FBECDBF2091890530918A0556
:1029700040918B0550918C052093050630930606F7
:10298000409307065093080660918505709186056F
:1029900080918705909188052617370748075907C2
:1029A00028F4621B730B840B950B06C0261B370B98
:1029B000480B590BCA01B9010E94864A20E030E059
:1029C0004AE754E40E9438486093F8057093F9058B
:1029D0008093FA059093FB050E94981F60938105F0
:1029E0007093820580938305909384050E946E1FE7
:1029F00060937D0570937E0580937F05909380059D
:102A00000E94531F809372050E945C1F8093730580
:102A10000E94651F809374050E94C31F6093EA059E
:102A20007093EB058093EC059093ED050E94F41FE5
:102A30006093D1057093D2058093D3059093D4050C
:102A400080918D0590918E05019690938E058093CF
:102A50008D050197E1F410920D0690E014C0A92FA6
:102A6000B0E080917205FD01EB51FA4F80838091B7
:102A70007305FD01EC56FA4F808380917405A251D5
:102A8000BA4F8C939F5F953050F390930D060E9440
:102A9000531F65EE75E00E949F01809372050E94AE
:102AA0005C1F64E975E00E949F01809373050E949A
:102AB000651F6EEE75E00E949F0180937405CE0144
:102AC00001960E94870F80EF90E068E270E00E941C
:102AD000B41B80E090E00E94C91B80EE9FEF0E9433
:102AE000C41B6091720570E080E090E0B4E0EB2ED2
:102AF000F12CEC0EFD1EA7012AE030E00E947F4D74
:102B0000C70160E00E94991B1AE0D701E12F1D92D6
:102B1000EA95E9F780EF90E066E470E00E94B41B6C
:102B200080E090E00E94C91B80EE9FEF0E94C41BD2
:102B30006091730570E080E090E0A7012AE030E04A
:102B40000E947F4DC70160E00E94991BD7011D9232
:102B50001A95E9F780EF90E064E670E00E94B41BFC
:102B600080E090E00E94C91B80EE9FEF0E94C41B92
:102B70006091740570E080E090E0A7012AE030E009
:102B80000E947F4DC70160E00E94991B86E490E09F
:102B900068E270E00E94B41B80E090E00E94C91BD4
:102BA00080EE9FEF0E94C41B60917D0570917E05B1
:102BB00080917F059091800520E030E048EC52E460
:102BC0000E943E476093A0057093A1058093A205E3
:102BD0009093A3050E94324A8B019C01EDB7FEB78A
:102BE0003A970FB6F894FEBF0FBEEDBF3196ADB762
:102BF000BEB71296FC92EE921197AAE0AA2EB12CC3
:102C0000B382A28271E1C72E71E0D72ED582C48231
:102C1000C80164E670E00E94084D77836683C801AE
:102C200064E670E00E94084D918780870E94B34D52
:102C3000EDB7FEB73A960FB6F894FEBF0FBEEDBFE4
:102C4000C70160E00E94991B86E490E066E470E0B2
:102C50000E94B41B80E090E00E94C91B80EE9FEFB1
:102C60000E94C41B6091810570918205809183054B
:102C70009091840520E030E048EC52E40E943E4709
:102C80006093CD057093CE058093CF059093D005CA
:102C90000E94324A8B019C018DB79EB70A970FB6EE
:102CA000F8949EBF0FBE8DBFEDB7FEB73196ADB79E
:102CB000BEB71296FC92EE921197B382A282D58291
:102CC000C482C80164E670E00E94084D7783668381
:102CD000C80164E670E00E94084D918780870E94D9
:102CE000B34DEDB7FEB73A960FB6F894FEBF0FBEE0
:102CF000EDBFC70160E00E94991B88E790E062E8A1
:102D000070E00E94B41B80E090E00E94C91B80EE3E
:102D10009FEF0E94C41B6091EA057091EB058091C2
:102D2000EC059091ED050E94324A2DB73EB72A502E
:102D300030400FB6F8943EBF0FBE2DBFEDB7FEB7C3
:102D40003196ADB7BEB71296FC92EE921197B38250
:102D5000A282D582C48277836683718760870E944E
:102D6000B34DEDB7FEB73A960FB6F894FEBF0FBE5F
:102D7000EDBF8C8160E00E94721A8D8160E00E943C
:102D8000721A8E8160E00E94721A8F8160E00E9448
:102D9000721A888560E00E94721A88E790E060EA03
:102DA00070E00E94B41B80E090E00E94C91B80EE9E
:102DB0009FEF0E94C41B6091D1057091D205809154
:102DC000D3059091D40520E030E048EC52E40E9415
:102DD0003E476093C2057093C3058093C4059093EA
:102DE000C5050E94324A8B019C018DB79EB70A9798
:102DF0000FB6F8949EBF0FBE8DBFEDB7FEB73196EC
:102E0000ADB7BEB71296FC92EE921197B382A28232
:102E1000D582C482C80164E670E00E94084D7783C1
:102E20006683C80164E670E00E94084D9187808740
:102E30000E94B34DEDB7FEB73A960FB6F894FEBFB9
:102E40000FBEEDBFC70160E00E94991B86EE90E0C7
:102E500060EA70E00E94B41B80E090E00E94C91B11
:102E600080EE9FEF0E94C41B6091D1057091D20546
:102E70008091D3059091D4052091EA053091EB051E
:102E80004091EC055091ED050E943E4720E030E076
:102E900040E05FE30E943E476093A6057093A7055C
:102EA0008093A8059093A9050E94324A2DB73EB79A
:102EB0002A5030400FB6F8943EBF0FBE2DBFEDB77D
:102EC000FEB73196ADB7BEB71296FC92EE9211974F
:102ED000B382A282D582C48277836683718760873A
:102EE0000E94B34DE090A605F090A7050091A805BB
:102EF0001091A905EDB7FEB73A960FB6F894FEBF4C
:102F00000FBEEDBFC801B70120E030E048EC52E44D
:102F10000E9444498823E4F0C801B70120E030E072
:102F20004AE754E40E947449882394F48C8160E059
:102F30000E94721A8D8160E00E94721A8E8160E098
:102F40000E94721A8F8160E00E94721A888515C0F3
:102F50008C8160E00E94721A8D8160E00E94721A7A
:102F60008E8160E00E94721A8F8160E00E94721A66
:102F7000888560E00E94721A898560E00E94721A5A
:102F80008091050690910606A0910706B09108066B
:102F90008093850590938605A0938705B093880557
:102FA0002D960FB6F894DEBF0FBECDBFCF91DF9147
:102FB0001F910F91FF90EF90DF90CF90BF90AF9057
:102FC0000895EF92FF920F931F93DF93CF93CDB7A6
:102FD000DEB768970FB6F894DEBF0FBECDBF0E9474
:102FE000BE1C8091640082698093640081E090E05F
:102FF0000E949B18209134033091350321503040BA
:1030000080913603909137031A821982422F3C83B4
:103010002B831E821D828F83988729813A815C8150
:103020006D817E8100E010E00E941F1980913603BF
:10303000909137031A86198610EAE12EF12C4E2D55
:10304000FC86EB861E861D868F87988B29853A85A0
:103050005C856D857E8500EE1FEF0E941F198091B3
:103060003603909137032E2DFA8AE98A60E471E0E5
:10307000462F7C8B6B8B1E8A1D8A8F8B988F3A898B
:103080005C896D897E890E941F190E949E060E949C
:10309000C51E0E94CE1E0E9462060E94131E0E9440
:1030A000291E85E060E00E94553680E00E948D3048
:1030B00080E00E94432B80E00E94742580E00E9403
:1030C00020200E94864386E090E068E070E00E9445
:1030D000B41B80E090E00E94C91B80EE9FEF0E942D
:1030E000C41B89E191E061E00E94991B789480E51E
:1030F00093EC2CE231E0F9013197F1F70197D9F720
:1031000008C0109300068091000681E00E944D1FC8
:1031100001C013E60E94F41F20E030E040E05FE3CE
:103120000E94744987FDEDCF0E94680F0E94B3068C
:103130000E94A214FBCF9C01909339038093380323
:103140002C9886E388B92B982B9A2C9A2115310557
:1031500071F480EF90E0909335038093340380E422
:1031600091E0909337038093360388E432C0213096
:10317000310571F480E491E090933503809334033A
:1031800080EF90E0909337038093360388EE21C060
:103190002230310571F480EF90E0909335038093F5
:1031A000340380E491E0909337038093360388E8FA
:1031B00010C02330310581F480E491E09093350311
:1031C0008093340380EF90E090933703809336032D
:1031D00088E288B92B982B9A2C988AE288B92B9888
:1031E0002B9A2C9A18B82B982B9A18B82B982B9AA4
:1031F0008091340390913503019798B901962B98EB
:103200002B9A815088B92B982B9A2C988BE288B9ED
:103210002B982B9A2C9A18B82B982B9A18B82B9875
:103220002B9A8091360390913703019798B90196B4
:103230002B982B9A815088B92B982B9A0895EF924E
:10324000FF920F931F93DF93CF93CDB7DEB72897ED
:103250000FB6F894DEBF0FBECDBFF22F2983E32F48
:103260003A834B835C83362F6D83272F7E838F8336
:1032700098877801AB81BC81062F172F6F817885E5
:103280002C988AE288B92B982B9A2C9AE8B92B981B
:103290002B9AF8B92B982B9AB8B92B982B9AA8B9D6
:1032A0002B982B9A2C988BE288B92B982B9A2C9AD6
:1032B00028B92B982B9A38B92B982B9A78B92B9838
:1032C0002B9A68B92B982B9A2C988CE288B92B985A
:1032D0002B9A2C9A2F2F3E2FC901AC010DC0F8B8A4
:1032E0002B982B9AE8B82B982B9A2F5F3F4F621799
:1032F0007307A8F74F5F5F4FA417B50710F0980149
:10330000F6CF28960FB6F894DEBF0FBECDBFCF9193
:10331000DF911F910F91FF90EF900895EF92FF9230
:103320000F931F93DF93CF93CDB7DEB728970FB6D8
:10333000F894DEBF0FBECDBFF22F2983E32F3A836F
:103340004B835C83362F6D83272F7E838F839887F3
:10335000D8010B811C81E62EF72E6F8178852C9881
:103360008AE288B92B982B9A2C9AE8B92B982B9A39
:10337000F8B92B982B9A18B92B982B9A08B92B9837
:103380002B9A2C988BE288B92B982B9A2C9A28B9D7
:103390002B982B9A38B92B982B9A78B92B982B9A73
:1033A00068B92B982B9A2C988CE288B92B982B9A79
:1033B0002C9A2F2F3E2FC901AC0114C011968C916D
:1033C000119788B92B982B9A12968C91129788B9DD
:1033D00014962B982B9A2F5F3F4F6217730770F745
:1033E0004F5F5F4F0417150710F09701F6CF28962F
:1033F0000FB6F894DEBF0FBECDBFCF91DF911F9106
:103400000F91FF90EF9008950F931F93DF93CF9349
:10341000CDB7DEB728970FB6F894DEBF0FBECDBF8D
:1034200010923B0310923A0310923D0310923C031A
:103430002091340330913503215030408091360380
:103440009091370301971A821982422F3C832B8374
:103450001E821D8298878F83009140031091410343
:1034600029813A815C816D817E8198850E941F1936
:1034700028960FB6F894DEBF0FBECDBFCF91DF9177
:103480001F910F9108952C982AE228B92B982B9A16
:103490002C9A98B92B982B9A88B92B982B9A98B973
:1034A0002B982B9A88B92B982B9A2C988CE288B958
:1034B0002B982B9A2C9AF0914003E0914103CB0179
:1034C0000DC0E8B92B982B9AF8B92B982B9AE8B92C
:1034D0002B982B9AF8B92B982B9A019648175907D5
:1034E00080F708954F925F926F927F928F929F9292
:1034F000AF92BF92CF92DF92EF92FF920F931F9302
:10350000CF93DF93E82F662341F4C0903A03D09025
:103510003B0334E0A32EB12C07C0C0903A03D090F7
:103520003B0329E0A22EB12CAC0CBD1CE0903C0367
:10353000F0903D038701095F1F4F8E2F80528F351A
:1035400008F0E6C085E0E802D0011124A452B040A2
:103550002C988BE288B92B982B9A2C9AF8B82B9838
:103560002B9AE8B82B982B9A6623B1F418B92B98AC
:103570002B9A08B92B982B9A60903E0380903F03BA
:103580007090400390904103E60120E030E09AE221
:10359000492E8CE2582E4EC0085F1F4F18B90850B4
:1035A00010402B982B9A802F885F88B9E3CF2C98F6
:1035B00048B82B982B9A2C9AD8B92B982B9AC8B923
:1035C0002B982B9AD8B92B982B9AC8B92B982B9A51
:1035D0002C9858B82B982B9A2C9A662321F4FD012D
:1035E000119684910AC020FD02C0AD0103C0AD0157
:1035F0004F5F5F4FFD018491DA01A70171E014C0B4
:10360000E72FE82311F4992D01C0982D98B92B9834
:103610002B9AEE2311F4972D01C0962D98B92B9873
:103620002B9A4F5F5F4F770F0417150748F72196C6
:103630002F5F3F4FAC16BD0608F0B9CF662309F0E7
:103640003FC02C988AE288B92B982B9A2C9AD8B92B
:103650002B982B9AC8B92B982B9AD8B92B982B9AC0
:10366000C8B92B982B9A2C988CE288B92B982B9A56
:103670002C9AC70107C098B82B982B9A78B82B982A
:103680002B9A019608171907B0F796012A5F3F4F4A
:1036900030933B0320933A03809134039091350398
:1036A00028173907A8F110923B0310923A0388E0DB
:1036B00090E0E80EF91EF0923D03E0923C0328C032
:1036C000CE01B701A8010E94431ACE010196B701AD
:1036D000A8010E94431A80913A0390913B030C96F3
:1036E00090933B0380933A03209134033091350348
:1036F0008217930768F010923B0310923A0380916F
:103700003C0390913D03409690933D0380933C038E
:10371000DF91CF911F910F91FF90EF90DF90CF90AD
:10372000BF90AF909F908F907F906F905F904F90E1
:1037300008950F931F93CF93DF93EC01062F10E0B2
:1037400008C0002311F460E001C061E00E94721A19
:103750001F5FFE01E10FF11D8081882391F7DF914A
:10376000CF911F910F910895813F910560F421E061
:103770006134720740F490933B0380933A03709353
:103780003D0360933C03089590934103809340036D
:10379000089590933F0380933E0308950896909375
:1037A000CC058093CB05665F7F4F7093A505609332
:1037B000A4050895EF92FF920F931F93CF93DF9389
:1037C000EC017A016330710509F462C0643071055F
:1037D00058F46130710591F10091A4051091A5058F
:1037E00062307105C0F50DC06530710509F46AC01D
:1037F0006530710508F459C06630710509F09BC049
:1038000079C02091CB053091CC05213F310508F0DE
:1038100092C0A4E0880F991FAA95E1F7800F911F2D
:1038200041E08134940708F086C030933B03209335
:103830003A0390933D0380933C037DC06091340331
:103840007091350380E090E00E94864A20E030E0ED
:1038500040E85EE343C0609134037091350380E03B
:1038600090E00E94864A20E030E040E05FE30E9462
:103870003E470E946845613F710508F05CC09E01AB
:10388000F4E0220F331FFA95E1F7200F311F47C0F4
:10389000609134037091350380E090E00E94864A85
:1038A00020E030E040E45FE319C0609134037091A0
:1038B000350380E090E00E94864A26E636E646E63A
:1038C0005FE30CC0609134037091350380E090E0B9
:1038D0000E94864A2AE939E949E55FE30E943E47AA
:1038E0000E9468454091A4055091A505613F71056E
:1038F00070F021C0609134037091350380E090E056
:103900000E94864A2AE939E949E15FE3E7CF9E014F
:10391000E4E0220F331FEA95E1F7240F351F41E061
:103920002134340740F470933B0360933A0330939F
:103930003D0320933C03C70160E00E94991BDF9187
:10394000CF911F910F91FF90EF90089584B58168FA
:1039500084BD85B58A6085BD17BC089520E030E040
:1039600040E05FE30E943E4720E030E04FE753E451
:103970000E943E470E94324A67BD089585B780681D
:1039800085BF85B7806885BF8FE784B98FEF87B91A
:103990000E94CB1C08952A9888EE93E02CE231E037
:1039A000F9013197F1F70197D9F72A9A88EE93E058
:1039B0002CE231E0F9013197F1F70197D9F72C9A10
:1039C0002B9A2D9A289829982E9A2C9888E288B9B3
:1039D0002B982B9A2C9A2C9881E188B92B982B9AAA
:1039E0002C9A88E592E02CE231E0F9013197F1F769
:1039F0000197D9F72C988BEC88B92B982B9A2C9A95
:103A000091E098B92B982B9A2C9880EC88B92B9838
:103A10002B9A2C9A83E088B92B982B9A2C9881ECBE
:103A200088B92B982B9A2C9A98B92B982B9A2C986A
:103A300085EC88B92B982B9A2C9A85E388B92B981A
:103A40002B9A8EE388B92B982B9A2C9886E388B909
:103A50002B982B9A2C9A88E488B92B982B9A2C981F
:103A600080EB88B92B982B9A2C9A8AE488B92B98EA
:103A70002B9A2C9881EB88B92B982B9A2C9A18B8F2
:103A80002B982B9A8BE188B92B982B9A2C9886EB44
:103A900088B92B982B9A2C9AE0E7F3E0819188B9AA
:103AA0002B982B9A43E0E437F407C1F72C9887EC66
:103AB00088B92B982B9A2C9A85EB88B92B982B9A3E
:103AC0002C9886EF88B92B982B9A2C9AECE6F3E089
:103AD000819188B92B982B9A83E0EF36F807C1F7CC
:103AE0002C9882EF88B92B982B9A2C9A18B82B987F
:103AF0002B9A2C9886E288B92B982B9A2C9A81E0E5
:103B000088B92B982B9A2C988AE388B92B982B9AF2
:103B10002C9A85E588B92B982B9A2C9880EE88B939
:103B20002B982B9A2C9AECE5F3E0819188B92B988D
:103B30002B9A43E0EB36F407C1F72C9881EE88B955
:103B40002B982B9A2C9AECE4F3E0819188B92B986E
:103B50002B9A83E0EB35F807C1F72C988AE288B9F5
:103B60002B982B9A2C9AE7E4F3E0819188B92B9853
:103B70002B9A43E0EB34F407C1F72C988BE288B919
:103B80002B982B9A2C9AE2E4F3E0819188B92B9838
:103B90002B9A83E0E634F807C1F72C9884E388B9C0
:103BA0002B982B9A2C9A2C9884EB88B92B982B9ACB
:103BB0002C9A18B82B982B9A2C9887EB88B92B98AD
:103BC0002B9A2C9A87E088B92B982B9A2C988CE208
:103BD00088B92B982B9A2C9A20E030E010C018B8A6
:103BE0002B982B9A18B82B982B9A019641E0803489
:103BF0009407A9F72F5F3F4F203F310519F080E070
:103C000090E0EDCF2C9889E288B92B982B9A2C9ACA
:103C100084EF91E02CE231E0F9013197F1F701975F
:103C2000D9F7299A0895EAE1F7E080E090E020E0F2
:103C300030E040E85DE305C0219331934193519317
:103C4000019680319105C4F390931806809317066E
:103C5000089580910D0690910E0620E030E040E03E
:103C600050E060E070E017C0F90186E0EE0FFF1F42
:103C70008A95E1F7E75EF94F80E090E004C0419358
:103C8000519361937193019681319105C1F72F5F33
:103C90003F4F80E190E02430310534F390930E06DD
:103CA00080930D0630931806209317060895AF925F
:103CB000BF92CF92DF92EF92FF920F931F93CF9319
:103CC000DF937B018C01FA0136E0EE0FFF1F3A957E
:103CD000E1F7EF5AF94F2FE030E00BC0808191817E
:103CE000A281B38184839583A683B783215030401A
:103CF00034971216130694F3FA0126E0EE0FFF1F15
:103D00002A95E1F7E75EF94FE082F182028313839F
:103D10005F019AE1C92E97E0D92E0F2EF0E0EF2E29
:103D2000F0E0FF2EF0E00F2FF0E01F2FF02DC0E0AD
:103D3000D0E017C0F50161917191819191915F017E
:103D4000F60121913191419151916F010E943E47BD
:103D50009B01AC01C801B7010E9411477B018C0196
:103D60002196C031D10534F3D0931806C0931706BD
:103D7000B701C801DF91CF911F910F91FF90EF9094
:103D8000DF90CF90BF90AF90089581B1807F81B9CF
:103D9000EAE7F0E0808186688083089581B18F78BA
:103DA00081B982B18F7882B98AB18F618AB919B825
:103DB000089580937C0080917A00806480937A00DB
:103DC00080917A0086FDFCCF2091780030917900B7
:103DD000C9010895882319F480B181700895813054
:103DE00039F480B190E08270907095958795089530
:103DF000823049F480B190E08470907095958795F9
:103E0000959587950895833051F480B190E088703E
:103E1000907073E0959587957A95E1F708958430D1
:103E200051F480B190E08071907064E09595879531
:103E30006A95E1F70895853051F480B190E0807281
:103E4000907055E0959587955A95E1F708958630DD
:103E500011F080E0089580B190E08074907046E0A9
:103E6000959587954A95E1F70895813011F4589A10
:103E7000089558980895813011F4599A08955998E1
:103E80000895813011F45A9A08955A98089581300E
:103E900011F45B9A08955B980895813011F45C9A4F
:103EA00008955C98089584E00E94EA1E90E08823BB
:103EB00009F491E0892F089585E00E94EA1E90E0C0
:103EC000882309F491E0892F089586E00E94EA1E74
:103ED00090E0882309F491E0892F089510927C00E6
:103EE00080917A00806480937A0080917A0086FDC8
:103EF000FCCF609178007091790080E090E00E94A2
:103F0000864A23E333E343E55BE30E943E4740E018
:103F100050E00E94571E2CE730EF41EC5FE30E9417
:103F20003E4724E13EEA47E85FE30E943E470895AA
:103F300081E080937C0080917A00806480937A0095
:103F400080917A0086FDFCCF6091780070917900B5
:103F500080E090E00E94864A23E333E343E55BE39D
:103F60000E943E4741E050E00E94571E2CE730EF90
:103F700041EC5FE30E943E4724E13EEA47E85FE30D
:103F80000E943E47089582E080937C0080917A00F1
:103F9000806480937A0080917A0086FDFCCF6091E6
:103FA00078007091790080E090E00E94864A23E3D7
:103FB00033E343E55BE30E943E4742E050E00E946A
:103FC000571E2AEC36E24BE95FE30E943E4720E0B1
:103FD00030E048EC52E40E943E4726EA38E94FE5DB
:103FE0005FE30E943E47089583E080937C008091C8
:103FF0007A00806480937A0080917A0086FDFCCFFD
:10400000609178007091790080E090E00E94864A8B
:1040100023E333E343E55BE30E943E4743E050E0A4
:104020000E94571E2CE730EF41E450E40E943E47C7
:1040300022EB35E848E85FE30E943E470895089583
:104040002F923F924F925F926F927F928F929F92A8
:10405000AF92BF92CF92DF92EF92FF920F931F9396
:10406000DF93CF93CDB7DEB7C053D1400FB6F894EE
:10407000DEBF0FBECDBF882E9924C40181539F4F50
:10408000C15DDE4F99838883CF52D140C4018B52EA
:104090009F4FC35DDE4F99838883CD52D1408FE51A
:1040A00090E0282F9A83898360E6E62EF12C4E2D2E
:1040B000FC82EB82C15DDE4F6881CF52D140C15D91
:1040C000DE4F88819981CF52D1409E838D83C35D1D
:1040D000DE4F88819981CD52D14098878F833A8174
:1040E0005C817E81C35DDE4F8881CD52D140988551
:1040F00007E918EF0E941F195CEC452E512C480C63
:10410000591CC4018A529F4FC55DDE4F9983888335
:10411000CB52D1402E2DFA86E98641E6E42EF12CD1
:104120004E2DFC86EB86642D5E864D86988B8F87A0
:104130003A855C857E85C55DDE4F8881CB52D14056
:1041400098890E941F19C40185539F4FC75DDE4F98
:1041500099838883C952D1402E2DFA8AE98A32E6A2
:10416000E32EF12C4E2DFC8AEB8AC75DDE4F688171
:10417000C952D1409E8B8D8BC55DDE4F8881998160
:10418000CB52D140988F8F8B3A895C897E89C55DEF
:10419000DE4F8881CB52D140988D0E941F19C401F7
:1041A00086539F4FC95DDE4F99838883C752D140A4
:1041B000BDEC2B2E312C280C391C2E2DFA8EE98EBD
:1041C000A3E6AA2EB12C4A2DBC8EAB8EC95DDE4F64
:1041D0006881C752D1409E8F8D8F38A22F8E3A8D25
:1041E0005C8D7E8D822D98A10E941F19C4018F5273
:1041F0009F4FCB5DDE4F99838883C552D1402E2DD2
:10420000FAA2E9A24A2DBCA2ABA2622D3EA22DA227
:1042100098A78FA33AA15CA17EA1CB5DDE4F8881D8
:10422000C552D14098A50FEF1FEF0E941F192E2DE8
:10423000FAA6E9A64A2DBCA6ABA6CB5DDE4F6881E7
:10424000C552D140CB5DDE4F88819981C552D140A6
:104250009EA78DA7C35DDE4F88819981CD52D14045
:1042600098AB8FA73AA55CA57EA5C35DDE4F88817C
:10427000CD52D14098A907E918EF0E941F192A2DA5
:10428000BAAAA9AAF4E6CF2ED12C4C2DDCAACBAA2F
:10429000C95DDE4F6881C752D140C95DDE4F88815C
:1042A0009981C752D1409EAB8DAB58AE4FAA3AA967
:1042B0005CA97EA9842D98AD0E941F19E2ED6E2E97
:1042C000712C680C791C2A2DBAAEA9AE4C2DDCAE2F
:1042D000CBAE642D5EAE4DAEFE01FF967182608264
:1042E0003AAD5CAD7EAD862DFE01E05CFF4F908166
:1042F0000FEF1FEF0E941F19C4018C529F4FCD5D1D
:10430000DE4F99838883C352D1402A2DFE01EF5B93
:10431000FF4FB182A0824C2DFE01ED5BFF4FD18299
:10432000C082662DFE01EB5BFF4F71826082FE0151
:10433000E95BFF4F91838083FE01EE5BFF4F30818D
:10434000FE01EC5BFF4F5081FE01EA5BFF4F708185
:10435000CD5DDE4F8881C352D140FE01E85BFF4F47
:10436000908107E918EF0E941F19FE01E75BFF4FDC
:104370002C2DD182C08275E6E72EF12C4E2DF382D2
:10438000E282C75DDE4F6881C952D140C75DDE4F12
:1043900088819981C952D14095838483578246820E
:1043A000318153817581842D97810E941F19C40129
:1043B00082539F4FCF5DDE4F99838883C152D14096
:1043C000FE01EF5AFF4F2C2DD182C0824E2DF38279
:1043D000E282642D558244829783868331815381A2
:1043E0007581CF5DDE4F8881C152D14097810FEF3B
:1043F0001FEF0E941F1960EDA62EB12CA80CB91C4E
:10440000FE01E75AFF4F2C2DD182C0824E2DF38240
:10441000E282CF5DDE4F6881C152D140CF5DDE4F79
:1044200088819981C152D14095838483B782A682C5
:104430003181538175818A2D978100E314E80E94B0
:104440001F19FE01EF59FF4F2C2DD182C0824E2D36
:10445000F382E2826A2DB582A482778266823181FC
:1044600053817581862D97810FEF1FEF0E941F19D1
:10447000FE01E759FF4F2C2DD182C0824E2DF382D1
:10448000E282662D75826482C35DDE4F88819981E8
:10449000CD52D14097838683318153817581C35D2D
:1044A000DE4F8881CD52D140978107E918EF0E94F5
:1044B0001F1989EC90E0880E991EFE01EF58FF4FFE
:1044C0002E2DF182E08256E6C52ED12C4C2DD382C2
:1044D000C282682D958284823782268231815381FF
:1044E0007581822D97810E941F19FE01E758FF4FA9
:1044F0002E2DF182E0824C2DD382C282622D358234
:104500002482CF5DDE4F88819981C152D14097834B
:104510008683318153817581CF5DDE4F8881C152A1
:10452000D14097810FEF1FEF0E941F19FE01EF5737
:10453000FF4F2E2DF182E0824C2DD382C282CF5DBF
:10454000DE4F6881C152D140CF5DDE4F88819981B5
:10455000C152D14095838483B782A6823181538131
:1045600075818A2D978100E314E80E941F19FE01CE
:10457000E757FF4F2E2DF182E0824C2DD382C2826D
:104580006A2DB582A482C55DDE4F88819981CB52A8
:10459000D14097838683318153817581C55DDE4F1C
:1045A0008881CB52D140978107E918EF0E941F19EB
:1045B000FE01EF56FF4F2C2DD182C08247E6E42E3C
:1045C000F12C4E2DF382E282682D95828482C55DA6
:1045D000DE4F88819981CB52D14097838683318188
:1045E00053817581C55DDE4F8881CB52D140978163
:1045F0000E941F19FE01E756FF4F2E2DF182E08227
:1046000038E6E32EF12C4E2DF382E282682D95825E
:104610008482C35DDE4F88819981CD52D1409783DA
:104620008683318153817581C35DDE4F8881CD5290
:10463000D14097810E941F19FE01EF55FF4F2E2D8B
:10464000F182E08299E6C92ED12C4C2DD382C28210
:10465000C95DDE4F6881C752D140C95DDE4F888198
:104660009981C752D14095838483378226823181D4
:1046700053817581822D97810E941F19FE01E75594
:10468000FF4F2E2DF182E0824C2DD382C282622D0B
:1046900035822482CB5DDE4F88819981C552D1401D
:1046A00097838683318153817581CB5DDE4F88810D
:1046B000C552D14097810FEF1FEF0E941F19FE01D5
:1046C000EF54FF4F2E2DF182E0824C2DD382C28217
:1046D000CB5DDE4F6881C552D140CB5DDE4F888116
:1046E0009981C552D14095838483CD5DDE4F888109
:1046F0009981C352D14097838683318153817581DB
:10470000CD5DDE4F8881C352D140978107E918EF14
:104710000E941F19FE01E754FF4F2C2DD182C08249
:104720008AE6E82EF12C4E2DF382E282C95DDE4F3F
:104730006881C752D140C95DDE4F88819981C752D7
:10474000D14095838483578246823181538175811C
:10475000842D97810E941F19FE01EF53FF4F2C2DCE
:10476000D182C0824E2DF382E282642D5582448232
:1047700077826682318153817581862D97810FEF13
:104780001FEF0E941F19FE01E753FF4F2C2DD1820E
:10479000C0824E2DF382E282662D75826482C35DF3
:1047A000DE4F88819981CD52D140978386833181B4
:1047B00053817581C35DDE4F8881CD52D140978191
:1047C00007E918EF0E941F19FE01EF52FF4F2E2D2F
:1047D000F182E082BBE6CB2ED12C4C2DD382C2825B
:1047E000C75DDE4F6881C952D140C75DDE4F888109
:1047F0009981C952D1409583848357824682318101
:1048000053817581842D97810E941F19FE01E75203
:10481000FF4F2E2DF182E0824C2DD382C282642D77
:1048200055824482CF5DDE4F88819981C152D1404B
:1048300097838683318153817581CF5DDE4F888177
:10484000C152D14097810FEF1FEF0E941F19FE0147
:10485000EF51FF4F2E2DF182E0824C2DD382C28288
:10486000CF5DDE4F6881C152D140CF5DDE4F888180
:104870009981C152D14095838483B782A6823181C8
:10488000538175818A2D978100E314E80E941F19D6
:10489000FE01E751FF4F2E2DF182E0824C2DD38295
:1048A000C2826A2DB582A482778266823181538169
:1048B0007581862D97810FEF1FEF0E941F19FE0152
:1048C000EF50FF4F2E2DF182E0824C2DD382C28219
:1048D000662D75826482C55DDE4F88819981CB52D9
:1048E000D14097838683318153817581C55DDE4FC9
:1048F0008881CB52D140978107E918EF0E941F1998
:10490000FE01E750FF4F2C2DD182C082ACE6EA2E8B
:10491000F12C4E2DF382E282642D5582448237823F
:104920002682318153817581822D97810E941F19C2
:10493000FE01EF5FFE4F2C2DD182C0824E2DF382FF
:10494000E282622D35822482C15DDE4F88819981A9
:10495000CF52D14097838683318153817581C15D68
:10496000DE4F8881CF52D14097810FEF1FEF0E9419
:104970001F19FE01E75FFE4F2C2DD182C0824E2D04
:10498000F382E282CF5DDE4F6881C152D140CF5DBC
:10499000DE4F88819981C152D14095838483CB5D5C
:1049A000DE4F88819981C552D140978386833181BA
:1049B00053817581CB5DDE4F8881C552D14097818F
:1049C00000E314E80E941F19FE01EF5EFE4F2C2D3C
:1049D000D182C0824E2DF382E2826A2DB582A482FA
:1049E000C55DDE4F88819981CB52D1409783868304
:1049F000318153817581C55DDE4F8881CB52D140B5
:104A0000978107E918EF0E941F19FE01E75EFE4F2C
:104A10002E2DF182E0828DE690E0482F93838283F1
:104A2000622D35822482C35DDE4F88819981CD520B
:104A3000D14097838683318153817581C35DDE4F79
:104A40008881CD52D14097810E941F19C05DDE4FF1
:104A50000FB6F894DEBF0FBECDBFCF91DF911F918F
:104A60000F91FF90EF90DF90CF90BF90AF909F900D
:104A70008F907F906F905F904F903F902F90089510
:104A80000F931F93DF93CF93CDB7DEB728970FB661
:104A9000F894DEBF0FBECDBF90E04FE550E0242F6D
:104AA0005A8349836DE670E0462F7C836B83FC015B
:104AB000E753FF4F6E2FFE83ED838A529F4F9887F7
:104AC0008F833A815C817E81988500EE1FEF0E9482
:104AD0001F1928960FB6F894DEBF0FBECDBFCF9139
:104AE000DF911F910F9108952F923F924F925F9205
:104AF0006F927F928F929F92AF92BF92CF92DF92EE
:104B0000EF92FF920F931F93DF93CF93CDB7DEB752
:104B1000C253D1400FB6F894DEBF0FBECDBF282FD1
:104B200030E0CF5CDE4F39832883C153D1408FEC16
:104B300090E0821B930BC15DDE4F99838883CF5237
:104B4000D14025ED30E0CF5CDE4F88819981C153A3
:104B5000D140281B390BC35DDE4F39832883CD52EA
:104B6000D1408BE490E0282F9A8389836CE4E62E71
:104B7000F12C4E2DFC82EB82C15DDE4F6881CF525D
:104B8000D140C15DDE4F88819981CF52D1409E8353
:104B90008D83C35DDE4F88819981CD52D140988746
:104BA0008F833A815C817E81C35DDE4F8881CD52E7
:104BB000D14098850FE110E00E941F195CEC652E32
:104BC000712CCF5CDE4F28813981C153D140621AEC
:104BD000730A86ED90E0821B930BC55DDE4F9983CF
:104BE0008883CB52D1402E2DFA86E9864DE4E42EFF
:104BF000F12C4E2DFC86EB86662D7E866D86988B7D
:104C00008F873A855C857E85C55DDE4F8881CB5276
:104C1000D14098890E941F192BEC30E0CF5CDE4F09
:104C200088819981C153D140281B390BC75DDE4F64
:104C300039832883C952D1402E2DFA8AE98A3EE46D
:104C4000E32EF12C4E2DFC8AEB8AC75DDE4F688186
:104C5000C952D140C75DDE4F88819981C952D14088
:104C60009E8B8D8BC55DDE4F88819981CB52D14063
:104C7000988F8F8B3A895C897E89C55DDE4F8881EC
:104C8000CB52D140988D0E941F192AEC30E0CF5CA6
:104C9000DE4F88819981C153D140281B390BC95DF2
:104CA000DE4F39832883C752D1402DEC30E0281BDA
:104CB000390BCB5DDE4F39832883C552D1402E2D71
:104CC000FA8EE98E9FE4A92EB12C4A2DBC8EAB8EB4
:104CD000C95DDE4F6881C752D140C95DDE4F888112
:104CE0009981C752D1409E8F8D8FCB5DDE4F8881D9
:104CF0009981C552D14098A38F8F3A8D5C8D7E8D5E
:104D0000CB5DDE4F8881C552D14098A10E941F190A
:104D100021ED30E0CF5CDE4F88819981C153D140D5
:104D2000281B390BCD5DDE4F39832883C352D14018
:104D30002E2DFAA2E9A24A2DBCA2ABA2CB5DDE4F7A
:104D40006881C552D140CB5DDE4F88819981C552C3
:104D5000D1409EA38DA3CD5DDE4F88819981C35242
:104D6000D14098A78FA33AA15CA17EA1CD5DDE4F73
:104D70008881C352D14098A50FEF1FEF0E941F19E1
:104D80002E2DFAA6E9A64A2DBCA6ABA6CD5DDE4F18
:104D90006881C352D140CD5DDE4F88819981C35275
:104DA000D1409EA78DA7C35DDE4F88819981CD52EA
:104DB000D14098AB8FA73AA55CA57EA5C35DDE4F19
:104DC0008881CD52D14098A90FE110E00E941F19AF
:104DD0002A2DBAAAA9AA80E5C82ED12C4C2DDCAA6E
:104DE000CBAAC95DDE4F6881C752D140C95DDE4F95
:104DF00088819981C752D1409EAB8DAB78AE6FAAA6
:104E00003AA95CA97EA9862D98AD0E941F19B2ED22
:104E10008B2E912CCF5CDE4F28813981C153D1403C
:104E2000821A930A2A2DBAAEA9AE4C2DDCAECBAEB7
:104E3000662D7EAE6DAEFE01FF96918280823AAD08
:104E40005CAD7EAD882DFE01E05CFF4F90810FEFE1
:104E50001FEF0E941F1984ED90E0CF5CDE4F288188
:104E60003981C153D140821B930BCF5DDE4F9983B3
:104E70008883C152D1402A2DFE01EF5BFF4FB182E2
:104E8000A0824C2DFE01ED5BFF4FD182C082682DC8
:104E9000FE01EB5BFF4F91828082FE01E95BFF4FD9
:104EA00091838083FE01EE5BFF4F3081FE01EC5B5E
:104EB000FF4F5081FE01EA5BFF4F7081CF5DDE4FF7
:104EC0008881C152D140FE01E85BFF4F90810FE124
:104ED00010E00E941F19FE01E75BFF4F2C2DD182CD
:104EE000C082A1E5EA2EF12C4E2DF382E282C75D4D
:104EF000DE4F6881C952D140C75DDE4F88819981FC
:104F0000C952D140958384837782668231815381EF
:104F10007581862D97810E941F197EEC272E312CDA
:104F2000CF5CDE4F28813981C153D140221A330A28
:104F3000FE01EF5AFF4F2C2DD182C0824E2DF382FD
:104F4000E282662D758264823782268231815381A6
:104F50007581822D97810FEF1FEF0E941F1960ED61
:104F6000462E512CCF5CDE4F88819981C153D140B0
:104F7000481A590AFE01E75AFF4F2C2DD182C082F0
:104F80004E2DF382E282622D358224825782468240
:104F9000318153817581842D978100E314E80E944B
:104FA0001F19FE01EF59FF4F2C2DD182C0824E2DCB
:104FB000F382E282642D5582448297828682318117
:104FC00053817581882D97810FEF1FEF0E941F1964
:104FD000FE01E759FF4F2C2DD182C0824E2DF38266
:104FE000E282682D95828482C35DDE4F888199813B
:104FF000CD52D14097838683318153817581C35DC2
:10500000DE4F8881CD52D14097810FE110E00E94A0
:105010001F1959ECA52EB12CCF5CDE4F28813981A8
:10502000C153D140A21AB30AFE01EF58FF4F2E2DF3
:10503000F182E08242E5C42ED12C4C2DD382C28273
:105040006A2DB582A482CB5DDE4F88819981C552DD
:10505000D14097838683318153817581CB5DDE4F4B
:105060008881C552D14097810E941F19FE01E758DF
:10507000FF4F2E2DF182E0824C2DD382C282CB5D78
:10508000DE4F6881C552D140CB5DDE4F888199816A
:10509000C552D140958384833782268231815381E2
:1050A0007581822D97810FEF1FEF0E941F19FE015E
:1050B000EF57FF4F2E2DF182E0824C2DD382C2821A
:1050C000622D3582248257824682318153817581D7
:1050D000842D978100E314E80E941F19FE01E75711
:1050E000FF4F2E2DF182E0824C2DD382C282642D9F
:1050F00055824482C55DDE4F88819981CB52D14073
:1051000097838683318153817581C55DDE4F8881A8
:10511000CB52D14097810FE110E00E941F19FE0190
:10512000EF56FF4F2C2DD182C08233E5E32EF12CB8
:105130004E2DF382E2826A2DB582A482C55DDE4FD8
:1051400088819981CB52D140978386833181538165
:105150007581C55DDE4F8881CB52D14097810E9419
:105160001F19FE01E756FF4F2E2DF182E08294E5D4
:10517000E92EF12C4E2DF382E2826A2DB582A482B3
:10518000C35DDE4F88819981CD52D140978386835C
:10519000318153817581C35DDE4F8881CD52D1400D
:1051A00097810E941F19FE01EF55FF4F2E2DF182AE
:1051B000E08285E5C82ED12C4C2DD382C282C95DF8
:1051C000DE4F6881C752D140C95DDE4F8881998129
:1051D000C752D14095838483CB5DDE4F888199810E
:1051E000C552D14097838683318153817581CB5DD0
:1051F000DE4F8881C552D14097810E941F19FE0160
:10520000E755FF4F2E2DF182E0824C2DD382C282D2
:10521000CB5DDE4F6881C552D140CB5DDE4F8881CA
:105220009981C552D14095838483CD5DDE4F8881BD
:105230009981C352D140978386833181538175818F
:10524000CD5DDE4F8881C352D14097810FEF1FEFB4
:105250000E941F19FE01EF54FF4F2E2DF182E082B4
:105260004C2DD382C282CD5DDE4F6881C352D140C6
:10527000CD5DDE4F88819981C352D140958384836F
:10528000CF5DDE4F88819981C152D140978386835B
:10529000318153817581CF5DDE4F8881C152D1400C
:1052A00097810FE110E00E941F19FE01E754FF4FA4
:1052B0002C2DD182C082B6E5EB2EF12C4E2DF3823F
:1052C000E282C95DDE4F6881C752D140C95DDE4FC1
:1052D00088819981C752D140958384837782668281
:1052E000318153817581862D97810E941F19FE019E
:1052F000EF53FF4F2C2DD182C0824E2DF382E282DC
:10530000662D758264829782868231815381758190
:10531000882D97810FEF1FEF0E941F19FE01E753A1
:10532000FF4F2C2DD182C0824E2DF382E282682D58
:1053300095828482C35DDE4F88819981CD52D140B0
:1053400097838683318153817581C35DDE4F888168
:10535000CD52D14097810FE110E00E941F19FE014C
:10536000EF52FF4F2E2DF182E082A7E5CA2ED12CFD
:105370004C2DD382C282C75DDE4F6881C952D140B5
:10538000C75DDE4F88819981C952D140958384835E
:1053900077826682318153817581862D97810E9443
:1053A0001F19FE01E752FF4F2E2DF182E0824C2D96
:1053B000D382C282662D75826482378226823181D1
:1053C00053817581822D97810FEF1FEF0E941F1966
:1053D000FE01EF51FF4F2E2DF182E0824C2DD38242
:1053E000C282622D35822482578246823181538166
:1053F0007581842D978100E314E80E941F19FE0136
:10540000E751FF4F2E2DF182E0824C2DD382C282D4
:10541000642D5582448297828682318153817581C1
:10542000882D97810FEF1FEF0E941F19FE01EF508B
:10543000FF4F2E2DF182E0824C2DD382C282682D47
:1054400095828482C55DDE4F88819981CB52D1409F
:1054500097838683318153817581C55DDE4F888155
:10546000CB52D14097810FE110E00E941F19FE013D
:10547000E750FF4F2C2DD182C08278E5E72EF12C2A
:105480004E2DF382E282662D75826482CB5DDE4F03
:1054900088819981C552D140978386833181538118
:1054A0007581CB5DDE4F8881C552D14097810E94C6
:1054B0001F19FE01EF5FFE4F2C2DD182C0824E2DB1
:1054C000F382E282CB5DDE4F6881C552D140CB5D75
:1054D000DE4F88819981C552D14095838483C15D17
:1054E000DE4F88819981CF52D14097838683318165
:1054F00053817581C15DDE4F8881CF52D140978144
:105500000FEF1FEF0E941F19FE01E75FFE4F2C2DCA
:10551000D182C0824E2DF382E282622D35822482B6
:10552000CD5DDE4F88819981C352D14097838683B8
:10553000318153817581CD5DDE4F8881C352D14069
:10554000978100E314E80E941F19FE01EF5EFE4FF1
:105550002C2DD182C0824E2DF382E282642D5582A1
:105560004482C55DDE4F88819981CB52D1409783BB
:105570008683318153817581C55DDE4F8881CB5231
:10558000D14097810FE110E00E941F19FE01E75EF4
:10559000FE4F2E2DF182E08289E590E0482F938323
:1055A0008283CB5DDE4F6881C552D140CB5DDE4F3B
:1055B00088819981C552D14095838483C35DDE4F34
:1055C00088819981CD52D1409783868331815381DF
:1055D0007581C35DDE4F8881CD52D14097810E9495
:1055E0001F19CE5CDE4F0FB6F894DEBF0FBECDBFE5
:1055F000CF91DF911F910F91FF90EF90DF90CF90AF
:10560000BF90AF909F908F907F906F905F904F90E2
:105610003F902F9008950F931F93DF93CF93CDB7B3
:10562000DEB728970FB6F894DEBF0FBECDBFE82FC8
:10563000F0E08BE490E0282F9A83898389E590E05D
:10564000482F9C838B8389EC90E08E1B9F0B682FE7
:105650009E838D8386ED90E08E1B9F0B98878F83B2
:105660003A815C817E81988500EE1FEF0E941F19B0
:1056700028960FB6F894DEBF0FBECDBFCF91DF9155
:105680001F910F9108952F923F924F925F926F92C8
:105690007F928F929F92AF92BF92CF92DF92EF92C2
:1056A000FF920F931F93DF93CF93CDB7DEB7C05315
:1056B000D1400FB6F894DEBF0FBECDBF882E99241F
:1056C000C40185539F4FC15DDE4F99838883CF52BC
:1056D000D140C4018F529F4FC35DDE4F99838883B1
:1056E000CD52D14087E390E0282F9A83898358E3F5
:1056F000E52EF12C4E2DFC82EB82C15DDE4F6881E0
:10570000CF52D140C15DDE4F88819981CF52D140C7
:105710009E838D83C35DDE4F88819981CD52D140B8
:1057200098878F833A815C817E81C35DDE4F88815B
:10573000CD52D140988500EE17E00E941F1948EC29
:10574000442E512C480C591CC4018E529F4FC55DEC
:10575000DE4F99838883CB52D1402E2DFA86E9867D
:1057600039E3E32EF12C4E2DFC86EB86642D5E860C
:105770004D86988B8F873A855C857E85C55DDE4F2B
:105780008881CB52D14098890E941F19C401895346
:105790009F4FC75DDE4F99838883C952D1402E2D1C
:1057A000FA8AE98ABAE3EB2EF12C4E2DFC8AEB8AB9
:1057B000C75DDE4F6881C952D1409E8B8D8BC55D20
:1057C000DE4F88819981CB52D140988F8F8B3A8957
:1057D0005C897E89C55DDE4F8881CB52D140988D32
:1057E0000E941F19C4018A539F4FC95DDE4F9983E0
:1057F0008883C752D140A9EC2A2E312C280C391CA1
:105800002E2DFA8EE98EFBE3AF2EB12C4A2DBC8EE5
:10581000AB8EC95DDE4F6881C752D1409E8F8D8FA0
:1058200038A22F8E3A8D5C8D7E8D822D98A10E949C
:105830001F19C40183539F4FCB5DDE4F998388832B
:10584000C552D1402E2DFAA2E9A24A2DBCA2ABA28C
:10585000622D3EA22DA298A78FA33AA15CA17EA1A2
:10586000CB5DDE4F8881C552D14098A50FEF1FEF69
:105870000E941F192E2DFAA6E9A64A2DBCA6ABA69A
:10588000CB5DDE4F6881C552D140CB5DDE4F888154
:105890009981C552D1409EA78DA7C35DDE4F8881F7
:1058A0009981CD52D14098AB8FA73AA55CA57EA532
:1058B000C35DDE4F8881CD52D14098A900EE17E03C
:1058C0000E941F192A2DBAAAA9AAECE3CE2ED12C28
:1058D0004C2DDCAACBAAC95DDE4F6881C752D140EE
:1058E000C95DDE4F88819981C752D1409EAB8DAB97
:1058F00058AE4FAA3AA95CA97EA9842D98AD0E9402
:105900001F197EEC672E712C680C791C2A2DBAAEFB
:10591000A9AE4C2DDCAECBAE642D5EAE4DAEFE011D
:10592000FF96718260823AAD5CAD7EAD862DFE0140
:10593000E05CFF4F90810FEF1FEF0E941F19C40121
:1059400080539F4FCD5DDE4F99838883C352D140F2
:105950002A2DFE01EF5BFF4FB182A0824C2DFE018C
:10596000ED5BFF4FD182C082662DFE01EB5BFF4FE6
:1059700071826082FE01E95BFF4F91838083FE01AB
:10598000EE5BFF4F3081FE01EC5BFF4F5081FE016B
:10599000EA5BFF4F7081CD5DDE4F8881C352D140FD
:1059A000FE01E85BFF4F908100EE17E00E941F1997
:1059B00065ECA62EB12CA80CB91CFE01E75BFF4FCD
:1059C0002C2DD182C0825DE3E52EF12C4E2DF38289
:1059D000E2826A2DB582A482578246823181538148
:1059E0007581842D97810E941F19C40186539F4F92
:1059F000CF5DDE4F99838883C152D140FE01EF5ABB
:105A0000FF4F2C2DD182C0824E2DF382E282642D75
:105A10005582448297838683318153817581CF5D1E
:105A2000DE4F8881C152D14097810FEF1FEF0E9456
:105A30001F198CEC90E0880E991EFE01E75AFF4F6B
:105A40002C2DD182C0824E2DF382E282CF5DDE4FBB
:105A50006881C152D140CF5DDE4F88819981C152AA
:105A6000D140958384839782868231815381758169
:105A7000882D978100E314E80E941F19FE01EF5959
:105A8000FF4F2C2DD182C0824E2DF382E282682DF1
:105A90009582848277826682318153817581862DD9
:105AA00097810FEF1FEF0E941F19FE01E759FF4F6B
:105AB0002C2DD182C0824E2DF382E282662D75821A
:105AC0006482C35DDE4F88819981CD52D140978336
:105AD0008683318153817581C35DDE4F8881CD52CC
